{
  "_format": "hh-sol-artifact-1",
  "contractName": "Tracking",
  "sourceName": "contracts/Tracking.sol",
  "abi": [
    {
      "inputs": [],
      "stateMutability": "nonpayable",
      "type": "constructor"
    },
    {
      "anonymous": false,
      "inputs": [
        {
          "indexed": true,
          "internalType": "address",
          "name": "sender",
          "type": "address"
        },
        {
          "indexed": true,
          "internalType": "address",
          "name": "receiver",
          "type": "address"
        },
        {
          "indexed": false,
          "internalType": "uint256",
          "name": "pickupTime",
          "type": "uint256"
        },
        {
          "indexed": false,
          "internalType": "uint256",
          "name": "price",
          "type": "uint256"
        }
      ],
      "name": "ShipmentCreated",
      "type": "event"
    },
    {
      "anonymous": false,
      "inputs": [
        {
          "indexed": true,
          "internalType": "address",
          "name": "sender",
          "type": "address"
        },
        {
          "indexed": true,
          "internalType": "address",
          "name": "receiver",
          "type": "address"
        },
        {
          "indexed": false,
          "internalType": "uint256",
          "name": "deliveryTime",
          "type": "uint256"
        }
      ],
      "name": "ShipmentDelivered",
      "type": "event"
    },
    {
      "anonymous": false,
      "inputs": [
        {
          "indexed": true,
          "internalType": "address",
          "name": "sender",
          "type": "address"
        },
        {
          "indexed": true,
          "internalType": "address",
          "name": "receiver",
          "type": "address"
        },
        {
          "indexed": false,
          "internalType": "uint256",
          "name": "pickupTime",
          "type": "uint256"
        }
      ],
      "name": "ShipmentInTransit",
      "type": "event"
    },
    {
      "anonymous": false,
      "inputs": [
        {
          "indexed": true,
          "internalType": "address",
          "name": "sender",
          "type": "address"
        },
        {
          "indexed": true,
          "internalType": "address",
          "name": "receiver",
          "type": "address"
        },
        {
          "indexed": false,
          "internalType": "uint256",
          "name": "amount",
          "type": "uint256"
        }
      ],
      "name": "ShipmentPaid",
      "type": "event"
    },
    {
      "inputs": [
        {
          "internalType": "address",
          "name": "_sender",
          "type": "address"
        },
        {
          "internalType": "address",
          "name": "_receiver",
          "type": "address"
        },
        {
          "internalType": "uint256",
          "name": "_index",
          "type": "uint256"
        }
      ],
      "name": "completeShipment",
      "outputs": [],
      "stateMutability": "nonpayable",
      "type": "function"
    },
    {
      "inputs": [
        {
          "internalType": "address",
          "name": "_receiver",
          "type": "address"
        },
        {
          "internalType": "uint256",
          "name": "_pickupTime",
          "type": "uint256"
        },
        {
          "internalType": "uint256",
          "name": "_price",
          "type": "uint256"
        }
      ],
      "name": "createShipment",
      "outputs": [],
      "stateMutability": "payable",
      "type": "function"
    },
    {
      "inputs": [],
      "name": "getAllTransactions",
      "outputs": [
        {
          "components": [
            {
              "internalType": "address",
              "name": "sender",
              "type": "address"
            },
            {
              "internalType": "address",
              "name": "receiver",
              "type": "address"
            },
            {
              "internalType": "uint256",
              "name": "pickupTime",
              "type": "uint256"
            },
            {
              "internalType": "uint256",
              "name": "price",
              "type": "uint256"
            },
            {
              "internalType": "enum Tracking.ShipmentStatus",
              "name": "status",
              "type": "uint8"
            },
            {
              "internalType": "bool",
              "name": "isPaid",
              "type": "bool"
            }
          ],
          "internalType": "struct Tracking.TyepShipment[]",
          "name": "",
          "type": "tuple[]"
        }
      ],
      "stateMutability": "view",
      "type": "function"
    },
    {
      "inputs": [
        {
          "internalType": "address",
          "name": "_sender",
          "type": "address"
        },
        {
          "internalType": "uint256",
          "name": "_index",
          "type": "uint256"
        }
      ],
      "name": "getShipment",
      "outputs": [
        {
          "internalType": "address",
          "name": "",
          "type": "address"
        },
        {
          "internalType": "address",
          "name": "",
          "type": "address"
        },
        {
          "internalType": "uint256",
          "name": "",
          "type": "uint256"
        },
        {
          "internalType": "uint256",
          "name": "",
          "type": "uint256"
        },
        {
          "internalType": "enum Tracking.ShipmentStatus",
          "name": "",
          "type": "uint8"
        },
        {
          "internalType": "bool",
          "name": "",
          "type": "bool"
        }
      ],
      "stateMutability": "view",
      "type": "function"
    },
    {
      "inputs": [
        {
          "internalType": "address",
          "name": "_sender",
          "type": "address"
        }
      ],
      "name": "getShipmentsCount",
      "outputs": [
        {
          "internalType": "uint256",
          "name": "",
          "type": "uint256"
        }
      ],
      "stateMutability": "view",
      "type": "function"
    },
    {
      "inputs": [],
      "name": "shipmentCount",
      "outputs": [
        {
          "internalType": "uint256",
          "name": "",
          "type": "uint256"
        }
      ],
      "stateMutability": "view",
      "type": "function"
    },
    {
      "inputs": [
        {
          "internalType": "address",
          "name": "",
          "type": "address"
        },
        {
          "internalType": "uint256",
          "name": "",
          "type": "uint256"
        }
      ],
      "name": "shipments",
      "outputs": [
        {
          "internalType": "address",
          "name": "sender",
          "type": "address"
        },
        {
          "internalType": "address",
          "name": "receiver",
          "type": "address"
        },
        {
          "internalType": "uint256",
          "name": "pickupTime",
          "type": "uint256"
        },
        {
          "internalType": "uint256",
          "name": "price",
          "type": "uint256"
        },
        {
          "internalType": "enum Tracking.ShipmentStatus",
          "name": "status",
          "type": "uint8"
        },
        {
          "internalType": "bool",
          "name": "isPaid",
          "type": "bool"
        }
      ],
      "stateMutability": "view",
      "type": "function"
    },
    {
      "inputs": [
        {
          "internalType": "address",
          "name": "_sender",
          "type": "address"
        },
        {
          "internalType": "address",
          "name": "_receiver",
          "type": "address"
        },
        {
          "internalType": "uint256",
          "name": "_index",
          "type": "uint256"
        }
      ],
      "name": "startShipment",
      "outputs": [],
      "stateMutability": "nonpayable",
      "type": "function"
    }
  ],
  "bytecode": "0x608060405234801561001057600080fd5b506000600181905550611835806100286000396000f3fe60806040526004361061007b5760003560e01c80635667e02f1161004e5780635667e02f1461012d5780637ff5265d1461016f5780638365da5414610198578063aace20b7146101da5761007b565b8063179a878c1461008057806327506f53146100a957806341fdc195146100d457806347cf953a14610111575b600080fd5b34801561008c57600080fd5b506100a760048036038101906100a29190611116565b610205565b005b3480156100b557600080fd5b506100be6105c3565b6040516100cb9190611343565b60405180910390f35b3480156100e057600080fd5b506100fb60048036038101906100f69190611365565b610738565b60405161010891906113a1565b60405180910390f35b61012b600480360381019061012691906113bc565b610783565b005b34801561013957600080fd5b50610154600480360381019061014f919061140f565b610ba7565b6040516101669695949392919061147c565b60405180910390f35b34801561017b57600080fd5b5061019660048036038101906101919190611116565b610c5a565b005b3480156101a457600080fd5b506101bf60048036038101906101ba919061140f565b610eb6565b6040516101d19695949392919061147c565b60405180910390f35b3480156101e657600080fd5b506101ef611077565b6040516101fc91906113a1565b60405180910390f35b60008060008573ffffffffffffffffffffffffffffffffffffffff1673ffffffffffffffffffffffffffffffffffffffff1681526020019081526020016000208281548110610257576102566114dd565b5b9060005260206000209060050201905060006002838154811061027d5761027c6114dd565b5b906000526020600020906005020190508373ffffffffffffffffffffffffffffffffffffffff168260010160009054906101000a900473ffffffffffffffffffffffffffffffffffffffff1673ffffffffffffffffffffffffffffffffffffffff161461031f576040517f08c379a000000000000000000000000000000000000000000000000000000000815260040161031690611569565b60405180910390fd5b60016002811115610333576103326111b3565b5b8260040160009054906101000a900460ff166002811115610357576103566111b3565b5b14610397576040517f08c379a000000000000000000000000000000000000000000000000000000000815260040161038e906115d5565b60405180910390fd5b8160040160019054906101000a900460ff16156103e9576040517f08c379a00000000000000000000000000000000000000000000000000000000081526004016103e090611641565b60405180910390fd5b60028260040160006101000a81548160ff02191690836002811115610411576104106111b3565b5b021790555060028160040160006101000a81548160ff0219169083600281111561043e5761043d6111b3565b5b02179055506000826003015490508260000160009054906101000a900473ffffffffffffffffffffffffffffffffffffffff1673ffffffffffffffffffffffffffffffffffffffff166108fc829081150290604051600060405180830381858888f193505050501580156104b6573d6000803e3d6000fd5b5060018360040160016101000a81548160ff02191690831515021790555060018260040160016101000a81548160ff0219169083151502179055508473ffffffffffffffffffffffffffffffffffffffff168673ffffffffffffffffffffffffffffffffffffffff167f3746ccceb54f44c9b0ee0120e596168d07ec9f6ca303cfdd9810d3b2e2686a2e4260405161054e91906113a1565b60405180910390a38473ffffffffffffffffffffffffffffffffffffffff168673ffffffffffffffffffffffffffffffffffffffff167f2b6f2473aebafaf8d0889669490135928ec4454d2e29a103fd39693bbca6aef1836040516105b391906113a1565b60405180910390a3505050505050565b60606002805480602002602001604051908101604052809291908181526020016000905b8282101561072f57838290600052602060002090600502016040518060c00160405290816000820160009054906101000a900473ffffffffffffffffffffffffffffffffffffffff1673ffffffffffffffffffffffffffffffffffffffff1673ffffffffffffffffffffffffffffffffffffffff1681526020016001820160009054906101000a900473ffffffffffffffffffffffffffffffffffffffff1673ffffffffffffffffffffffffffffffffffffffff1673ffffffffffffffffffffffffffffffffffffffff16815260200160028201548152602001600382015481526020016004820160009054906101000a900460ff1660028111156106ef576106ee6111b3565b5b6002811115610701576107006111b3565b5b81526020016004820160019054906101000a900460ff161515151581525050815260200190600101906105e7565b50505050905090565b60008060008373ffffffffffffffffffffffffffffffffffffffff1673ffffffffffffffffffffffffffffffffffffffff168152602001908152602001600020805490509050919050565b8034146107c5576040517f08c379a00000000000000000000000000000000000000000000000000000000081526004016107bc906116d3565b60405180910390fd5b60006040518060c001604052803373ffffffffffffffffffffffffffffffffffffffff1681526020018573ffffffffffffffffffffffffffffffffffffffff1681526020018481526020018381526020016000600281111561082a576108296111b3565b5b81526020016000151581525090506000803373ffffffffffffffffffffffffffffffffffffffff1673ffffffffffffffffffffffffffffffffffffffff16815260200190815260200160002081908060018154018082558091505060019003906000526020600020906005020160009091909190915060008201518160000160006101000a81548173ffffffffffffffffffffffffffffffffffffffff021916908373ffffffffffffffffffffffffffffffffffffffff16021790555060208201518160010160006101000a81548173ffffffffffffffffffffffffffffffffffffffff021916908373ffffffffffffffffffffffffffffffffffffffff160217905550604082015181600201556060820151816003015560808201518160040160006101000a81548160ff0219169083600281111561096d5761096c6111b3565b5b021790555060a08201518160040160016101000a81548160ff0219169083151502179055505050600160008154809291906109a790611722565b919050555060026040518060c001604052803373ffffffffffffffffffffffffffffffffffffffff1681526020018673ffffffffffffffffffffffffffffffffffffffff16815260200185815260200184815260200160006002811115610a1157610a106111b3565b5b815260200160001515815250908060018154018082558091505060019003906000526020600020906005020160009091909190915060008201518160000160006101000a81548173ffffffffffffffffffffffffffffffffffffffff021916908373ffffffffffffffffffffffffffffffffffffffff16021790555060208201518160010160006101000a81548173ffffffffffffffffffffffffffffffffffffffff021916908373ffffffffffffffffffffffffffffffffffffffff160217905550604082015181600201556060820151816003015560808201518160040160006101000a81548160ff02191690836002811115610b1357610b126111b3565b5b021790555060a08201518160040160016101000a81548160ff02191690831515021790555050508373ffffffffffffffffffffffffffffffffffffffff163373ffffffffffffffffffffffffffffffffffffffff167f7342e16106c69a5a19241c8d4d41dbf5e8dd540542c164a607126ee6389c40b68585604051610b9992919061176a565b60405180910390a350505050565b60006020528160005260406000208181548110610bc357600080fd5b9060005260206000209060050201600091509150508060000160009054906101000a900473ffffffffffffffffffffffffffffffffffffffff16908060010160009054906101000a900473ffffffffffffffffffffffffffffffffffffffff16908060020154908060030154908060040160009054906101000a900460ff16908060040160019054906101000a900460ff16905086565b60008060008573ffffffffffffffffffffffffffffffffffffffff1673ffffffffffffffffffffffffffffffffffffffff1681526020019081526020016000208281548110610cac57610cab6114dd565b5b90600052602060002090600502019050600060028381548110610cd257610cd16114dd565b5b906000526020600020906005020190508373ffffffffffffffffffffffffffffffffffffffff168260010160009054906101000a900473ffffffffffffffffffffffffffffffffffffffff1673ffffffffffffffffffffffffffffffffffffffff1614610d74576040517f08c379a0000000000000000000000000000000000000000000000000000000008152600401610d6b90611569565b60405180910390fd5b60006002811115610d8857610d876111b3565b5b8260040160009054906101000a900460ff166002811115610dac57610dab6111b3565b5b14610dec576040517f08c379a0000000000000000000000000000000000000000000000000000000008152600401610de3906117df565b60405180910390fd5b60018260040160006101000a81548160ff02191690836002811115610e1457610e136111b3565b5b021790555060018160040160006101000a81548160ff02191690836002811115610e4157610e406111b3565b5b02179055508373ffffffffffffffffffffffffffffffffffffffff168573ffffffffffffffffffffffffffffffffffffffff167faafab9f94340179ff9cefd29621e1772a4b8efab8023163838f1b0a8f6ce5df58460020154604051610ea791906113a1565b60405180910390a35050505050565b60008060008060008060008060008a73ffffffffffffffffffffffffffffffffffffffff1673ffffffffffffffffffffffffffffffffffffffff1681526020019081526020016000208881548110610f1157610f106114dd565b5b90600052602060002090600502016040518060c00160405290816000820160009054906101000a900473ffffffffffffffffffffffffffffffffffffffff1673ffffffffffffffffffffffffffffffffffffffff1673ffffffffffffffffffffffffffffffffffffffff1681526020016001820160009054906101000a900473ffffffffffffffffffffffffffffffffffffffff1673ffffffffffffffffffffffffffffffffffffffff1673ffffffffffffffffffffffffffffffffffffffff16815260200160028201548152602001600382015481526020016004820160009054906101000a900460ff16600281111561100f5761100e6111b3565b5b6002811115611021576110206111b3565b5b81526020016004820160019054906101000a900460ff1615151515815250509050806000015181602001518260400151836060015184608001518560a00151965096509650965096509650509295509295509295565b60015481565b600080fd5b600073ffffffffffffffffffffffffffffffffffffffff82169050919050565b60006110ad82611082565b9050919050565b6110bd816110a2565b81146110c857600080fd5b50565b6000813590506110da816110b4565b92915050565b6000819050919050565b6110f3816110e0565b81146110fe57600080fd5b50565b600081359050611110816110ea565b92915050565b60008060006060848603121561112f5761112e61107d565b5b600061113d868287016110cb565b935050602061114e868287016110cb565b925050604061115f86828701611101565b9150509250925092565b600081519050919050565b600082825260208201905092915050565b6000819050602082019050919050565b61119e816110a2565b82525050565b6111ad816110e0565b82525050565b7f4e487b7100000000000000000000000000000000000000000000000000000000600052602160045260246000fd5b600381106111f3576111f26111b3565b5b50565b6000819050611204826111e2565b919050565b6000611214826111f6565b9050919050565b61122481611209565b82525050565b60008115159050919050565b61123f8161122a565b82525050565b60c08201600082015161125b6000850182611195565b50602082015161126e6020850182611195565b50604082015161128160408501826111a4565b50606082015161129460608501826111a4565b5060808201516112a7608085018261121b565b5060a08201516112ba60a0850182611236565b50505050565b60006112cc8383611245565b60c08301905092915050565b6000602082019050919050565b60006112f082611169565b6112fa8185611174565b935061130583611185565b8060005b8381101561133657815161131d88826112c0565b9750611328836112d8565b925050600181019050611309565b5085935050505092915050565b6000602082019050818103600083015261135d81846112e5565b905092915050565b60006020828403121561137b5761137a61107d565b5b6000611389848285016110cb565b91505092915050565b61139b816110e0565b82525050565b60006020820190506113b66000830184611392565b92915050565b6000806000606084860312156113d5576113d461107d565b5b60006113e3868287016110cb565b93505060206113f486828701611101565b925050604061140586828701611101565b9150509250925092565b600080604083850312156114265761142561107d565b5b6000611434858286016110cb565b925050602061144585828601611101565b9150509250929050565b611458816110a2565b82525050565b61146781611209565b82525050565b6114768161122a565b82525050565b600060c082019050611491600083018961144f565b61149e602083018861144f565b6114ab6040830187611392565b6114b86060830186611392565b6114c5608083018561145e565b6114d260a083018461146d565b979650505050505050565b7f4e487b7100000000000000000000000000000000000000000000000000000000600052603260045260246000fd5b600082825260208201905092915050565b7f496e76616c69642072656365697665722e000000000000000000000000000000600082015250565b600061155360118361150c565b915061155e8261151d565b602082019050919050565b6000602082019050818103600083015261158281611546565b9050919050565b7f536869706d656e74206e6f7420696e207472616e7369742e0000000000000000600082015250565b60006115bf60188361150c565b91506115ca82611589565b602082019050919050565b600060208201905081810360008301526115ee816115b2565b9050919050565b7f536869706d656e7420616c726561647920706169642e00000000000000000000600082015250565b600061162b60168361150c565b9150611636826115f5565b602082019050919050565b6000602082019050818103600083015261165a8161161e565b9050919050565b7f5061796d656e7420616d6f756e74206d757374206d617463682074686520707260008201527f6963652e00000000000000000000000000000000000000000000000000000000602082015250565b60006116bd60248361150c565b91506116c882611661565b604082019050919050565b600060208201905081810360008301526116ec816116b0565b9050919050565b7f4e487b7100000000000000000000000000000000000000000000000000000000600052601160045260246000fd5b600061172d826110e0565b91507fffffffffffffffffffffffffffffffffffffffffffffffffffffffffffffffff820361175f5761175e6116f3565b5b600182019050919050565b600060408201905061177f6000830185611392565b61178c6020830184611392565b9392505050565b7f536869706d656e7420616c726561647920696e207472616e7369742e00000000600082015250565b60006117c9601c8361150c565b91506117d482611793565b602082019050919050565b600060208201905081810360008301526117f8816117bc565b905091905056fea264697066735822122081a46fa999306048b6d1f7216d039bae022b2945dea6330c361dc431986d51fb64736f6c63430008120033",
  "linkReferences": {},
  "deployedLinkReferences": {}
}