{
  "_format": "hh-sol-artifact-1",
  "contractName": "Tracking",
  "sourceName": "contracts/Tracking.sol",
  "abi": [
    {
      "inputs": [],
      "stateMutability": "nonpayable",
      "type": "constructor"
    },
    {
      "anonymous": false,
      "inputs": [
        {
          "indexed": true,
          "internalType": "address",
          "name": "sender",
          "type": "address"
        },
        {
          "indexed": true,
          "internalType": "address",
          "name": "receiver",
          "type": "address"
        },
        {
          "indexed": false,
          "internalType": "uint256",
          "name": "pickupTime",
          "type": "uint256"
        },
        {
          "indexed": false,
          "internalType": "uint256",
          "name": "price",
          "type": "uint256"
        }
      ],
      "name": "ShipmentCreated",
      "type": "event"
    },
    {
      "anonymous": false,
      "inputs": [
        {
          "indexed": true,
          "internalType": "address",
          "name": "sender",
          "type": "address"
        },
        {
          "indexed": true,
          "internalType": "address",
          "name": "receiver",
          "type": "address"
        }
      ],
      "name": "ShipmentDelivered",
      "type": "event"
    },
    {
      "anonymous": false,
      "inputs": [
        {
          "indexed": true,
          "internalType": "address",
          "name": "sender",
          "type": "address"
        },
        {
          "indexed": true,
          "internalType": "address",
          "name": "receiver",
          "type": "address"
        },
        {
          "indexed": false,
          "internalType": "uint256",
          "name": "pickupTime",
          "type": "uint256"
        }
      ],
      "name": "ShipmentInTransit",
      "type": "event"
    },
    {
      "anonymous": false,
      "inputs": [
        {
          "indexed": true,
          "internalType": "address",
          "name": "sender",
          "type": "address"
        },
        {
          "indexed": true,
          "internalType": "address",
          "name": "receiver",
          "type": "address"
        },
        {
          "indexed": false,
          "internalType": "uint256",
          "name": "amount",
          "type": "uint256"
        }
      ],
      "name": "ShipmentPaid",
      "type": "event"
    },
    {
      "inputs": [
        {
          "internalType": "uint256",
          "name": "",
          "type": "uint256"
        }
      ],
      "name": "allShipments",
      "outputs": [
        {
          "internalType": "address",
          "name": "sender",
          "type": "address"
        },
        {
          "internalType": "address",
          "name": "receiver",
          "type": "address"
        },
        {
          "internalType": "uint256",
          "name": "pickupTime",
          "type": "uint256"
        },
        {
          "internalType": "uint256",
          "name": "price",
          "type": "uint256"
        },
        {
          "internalType": "enum Tracking.ShipmentStatus",
          "name": "status",
          "type": "uint8"
        },
        {
          "internalType": "bool",
          "name": "isPaid",
          "type": "bool"
        }
      ],
      "stateMutability": "view",
      "type": "function"
    },
    {
      "inputs": [
        {
          "internalType": "address",
          "name": "_sender",
          "type": "address"
        },
        {
          "internalType": "address",
          "name": "_receiver",
          "type": "address"
        },
        {
          "internalType": "uint256",
          "name": "_index",
          "type": "uint256"
        }
      ],
      "name": "completeShipment",
      "outputs": [],
      "stateMutability": "nonpayable",
      "type": "function"
    },
    {
      "inputs": [
        {
          "internalType": "address",
          "name": "_receiver",
          "type": "address"
        },
        {
          "internalType": "uint256",
          "name": "_pickupTime",
          "type": "uint256"
        },
        {
          "internalType": "uint256",
          "name": "_price",
          "type": "uint256"
        }
      ],
      "name": "createShipment",
      "outputs": [],
      "stateMutability": "payable",
      "type": "function"
    },
    {
      "inputs": [],
      "name": "getAllTransactions",
      "outputs": [
        {
          "components": [
            {
              "internalType": "address",
              "name": "sender",
              "type": "address"
            },
            {
              "internalType": "address",
              "name": "receiver",
              "type": "address"
            },
            {
              "internalType": "uint256",
              "name": "pickupTime",
              "type": "uint256"
            },
            {
              "internalType": "uint256",
              "name": "price",
              "type": "uint256"
            },
            {
              "internalType": "enum Tracking.ShipmentStatus",
              "name": "status",
              "type": "uint8"
            },
            {
              "internalType": "bool",
              "name": "isPaid",
              "type": "bool"
            }
          ],
          "internalType": "struct Tracking.Shipment[]",
          "name": "",
          "type": "tuple[]"
        }
      ],
      "stateMutability": "view",
      "type": "function"
    },
    {
      "inputs": [
        {
          "internalType": "address",
          "name": "_sender",
          "type": "address"
        },
        {
          "internalType": "uint256",
          "name": "_index",
          "type": "uint256"
        }
      ],
      "name": "getShipment",
      "outputs": [
        {
          "internalType": "address",
          "name": "",
          "type": "address"
        },
        {
          "internalType": "address",
          "name": "",
          "type": "address"
        },
        {
          "internalType": "uint256",
          "name": "",
          "type": "uint256"
        },
        {
          "internalType": "uint256",
          "name": "",
          "type": "uint256"
        },
        {
          "internalType": "enum Tracking.ShipmentStatus",
          "name": "",
          "type": "uint8"
        },
        {
          "internalType": "bool",
          "name": "",
          "type": "bool"
        }
      ],
      "stateMutability": "view",
      "type": "function"
    },
    {
      "inputs": [
        {
          "internalType": "address",
          "name": "_sender",
          "type": "address"
        }
      ],
      "name": "getShipmentsCount",
      "outputs": [
        {
          "internalType": "uint256",
          "name": "",
          "type": "uint256"
        }
      ],
      "stateMutability": "view",
      "type": "function"
    },
    {
      "inputs": [],
      "name": "shipmentCount",
      "outputs": [
        {
          "internalType": "uint256",
          "name": "",
          "type": "uint256"
        }
      ],
      "stateMutability": "view",
      "type": "function"
    },
    {
      "inputs": [
        {
          "internalType": "address",
          "name": "",
          "type": "address"
        },
        {
          "internalType": "uint256",
          "name": "",
          "type": "uint256"
        }
      ],
      "name": "shipments",
      "outputs": [
        {
          "internalType": "address",
          "name": "sender",
          "type": "address"
        },
        {
          "internalType": "address",
          "name": "receiver",
          "type": "address"
        },
        {
          "internalType": "uint256",
          "name": "pickupTime",
          "type": "uint256"
        },
        {
          "internalType": "uint256",
          "name": "price",
          "type": "uint256"
        },
        {
          "internalType": "enum Tracking.ShipmentStatus",
          "name": "status",
          "type": "uint8"
        },
        {
          "internalType": "bool",
          "name": "isPaid",
          "type": "bool"
        }
      ],
      "stateMutability": "view",
      "type": "function"
    },
    {
      "inputs": [
        {
          "internalType": "address",
          "name": "_sender",
          "type": "address"
        },
        {
          "internalType": "address",
          "name": "_receiver",
          "type": "address"
        },
        {
          "internalType": "uint256",
          "name": "_index",
          "type": "uint256"
        }
      ],
      "name": "startShipment",
      "outputs": [],
      "stateMutability": "nonpayable",
      "type": "function"
    }
  ],
  "bytecode": "0x608060405234801561001057600080fd5b506000600281905550611817806100286000396000f3fe6080604052600436106100865760003560e01c806347cf953a1161005957806347cf953a1461015e5780635667e02f1461017a5780637ff5265d146101bc5780638365da54146101e5578063aace20b71461022757610086565b80630612e03b1461008b578063179a878c146100cd57806327506f53146100f657806341fdc19514610121575b600080fd5b34801561009757600080fd5b506100b260048036038101906100ad919061106d565b610252565b6040516100c49695949392919061117c565b60405180910390f35b3480156100d957600080fd5b506100f460048036038101906100ef9190611209565b6102f8565b005b34801561010257600080fd5b5061010b61063a565b60405161011891906113c2565b60405180910390f35b34801561012d57600080fd5b50610148600480360381019061014391906113e4565b6107af565b6040516101559190611411565b60405180910390f35b6101786004803603810190610173919061142c565b6107fa565b005b34801561018657600080fd5b506101a1600480360381019061019c919061147f565b610bb0565b6040516101b39695949392919061117c565b60405180910390f35b3480156101c857600080fd5b506101e360048036038101906101de9190611209565b610c63565b005b3480156101f157600080fd5b5061020c6004803603810190610207919061147f565b610e6b565b60405161021e9695949392919061117c565b60405180910390f35b34801561023357600080fd5b5061023c61102c565b6040516102499190611411565b60405180910390f35b6001818154811061026257600080fd5b90600052602060002090600502016000915090508060000160009054906101000a900473ffffffffffffffffffffffffffffffffffffffff16908060010160009054906101000a900473ffffffffffffffffffffffffffffffffffffffff16908060020154908060030154908060040160009054906101000a900460ff16908060040160019054906101000a900460ff16905086565b60008060008573ffffffffffffffffffffffffffffffffffffffff1673ffffffffffffffffffffffffffffffffffffffff168152602001908152602001600020828154811061034a576103496114bf565b5b906000526020600020906005020190508273ffffffffffffffffffffffffffffffffffffffff168160010160009054906101000a900473ffffffffffffffffffffffffffffffffffffffff1673ffffffffffffffffffffffffffffffffffffffff16146103ec576040517f08c379a00000000000000000000000000000000000000000000000000000000081526004016103e39061154b565b60405180910390fd5b60016002811115610400576103ff6110ea565b5b8160040160009054906101000a900460ff166002811115610424576104236110ea565b5b14610464576040517f08c379a000000000000000000000000000000000000000000000000000000000815260040161045b906115b7565b60405180910390fd5b8060040160019054906101000a900460ff16156104b6576040517f08c379a00000000000000000000000000000000000000000000000000000000081526004016104ad90611623565b60405180910390fd5b60028160040160006101000a81548160ff021916908360028111156104de576104dd6110ea565b5b02179055506000816003015490508160010160009054906101000a900473ffffffffffffffffffffffffffffffffffffffff1673ffffffffffffffffffffffffffffffffffffffff166108fc829081150290604051600060405180830381858888f19350505050158015610556573d6000803e3d6000fd5b5060018260040160016101000a81548160ff0219169083151502179055508373ffffffffffffffffffffffffffffffffffffffff168573ffffffffffffffffffffffffffffffffffffffff167f1cce15e1d0871a5922772c04a312086d7ef07fcb28d9946c5db86fdb4d25e0cb60405160405180910390a38373ffffffffffffffffffffffffffffffffffffffff168573ffffffffffffffffffffffffffffffffffffffff167f2b6f2473aebafaf8d0889669490135928ec4454d2e29a103fd39693bbca6aef18360405161062b9190611411565b60405180910390a35050505050565b60606001805480602002602001604051908101604052809291908181526020016000905b828210156107a657838290600052602060002090600502016040518060c00160405290816000820160009054906101000a900473ffffffffffffffffffffffffffffffffffffffff1673ffffffffffffffffffffffffffffffffffffffff1673ffffffffffffffffffffffffffffffffffffffff1681526020016001820160009054906101000a900473ffffffffffffffffffffffffffffffffffffffff1673ffffffffffffffffffffffffffffffffffffffff1673ffffffffffffffffffffffffffffffffffffffff16815260200160028201548152602001600382015481526020016004820160009054906101000a900460ff166002811115610766576107656110ea565b5b6002811115610778576107776110ea565b5b81526020016004820160019054906101000a900460ff1615151515815250508152602001906001019061065e565b50505050905090565b60008060008373ffffffffffffffffffffffffffffffffffffffff1673ffffffffffffffffffffffffffffffffffffffff168152602001908152602001600020805490509050919050565b80341461083c576040517f08c379a0000000000000000000000000000000000000000000000000000000008152600401610833906116b5565b60405180910390fd5b60006040518060c001604052803373ffffffffffffffffffffffffffffffffffffffff1681526020018573ffffffffffffffffffffffffffffffffffffffff168152602001848152602001838152602001600060028111156108a1576108a06110ea565b5b81526020016000151581525090506000803373ffffffffffffffffffffffffffffffffffffffff1673ffffffffffffffffffffffffffffffffffffffff16815260200190815260200160002081908060018154018082558091505060019003906000526020600020906005020160009091909190915060008201518160000160006101000a81548173ffffffffffffffffffffffffffffffffffffffff021916908373ffffffffffffffffffffffffffffffffffffffff16021790555060208201518160010160006101000a81548173ffffffffffffffffffffffffffffffffffffffff021916908373ffffffffffffffffffffffffffffffffffffffff160217905550604082015181600201556060820151816003015560808201518160040160006101000a81548160ff021916908360028111156109e4576109e36110ea565b5b021790555060a08201518160040160016101000a81548160ff0219169083151502179055505050600181908060018154018082558091505060019003906000526020600020906005020160009091909190915060008201518160000160006101000a81548173ffffffffffffffffffffffffffffffffffffffff021916908373ffffffffffffffffffffffffffffffffffffffff16021790555060208201518160010160006101000a81548173ffffffffffffffffffffffffffffffffffffffff021916908373ffffffffffffffffffffffffffffffffffffffff160217905550604082015181600201556060820151816003015560808201518160040160006101000a81548160ff02191690836002811115610b0457610b036110ea565b5b021790555060a08201518160040160016101000a81548160ff021916908315150217905550505060026000815480929190610b3e90611704565b91905055508373ffffffffffffffffffffffffffffffffffffffff163373ffffffffffffffffffffffffffffffffffffffff167f7342e16106c69a5a19241c8d4d41dbf5e8dd540542c164a607126ee6389c40b68585604051610ba292919061174c565b60405180910390a350505050565b60006020528160005260406000208181548110610bcc57600080fd5b9060005260206000209060050201600091509150508060000160009054906101000a900473ffffffffffffffffffffffffffffffffffffffff16908060010160009054906101000a900473ffffffffffffffffffffffffffffffffffffffff16908060020154908060030154908060040160009054906101000a900460ff16908060040160019054906101000a900460ff16905086565b60008060008573ffffffffffffffffffffffffffffffffffffffff1673ffffffffffffffffffffffffffffffffffffffff1681526020019081526020016000208281548110610cb557610cb46114bf565b5b906000526020600020906005020190508273ffffffffffffffffffffffffffffffffffffffff168160010160009054906101000a900473ffffffffffffffffffffffffffffffffffffffff1673ffffffffffffffffffffffffffffffffffffffff1614610d57576040517f08c379a0000000000000000000000000000000000000000000000000000000008152600401610d4e9061154b565b60405180910390fd5b60006002811115610d6b57610d6a6110ea565b5b8160040160009054906101000a900460ff166002811115610d8f57610d8e6110ea565b5b14610dcf576040517f08c379a0000000000000000000000000000000000000000000000000000000008152600401610dc6906117c1565b60405180910390fd5b60018160040160006101000a81548160ff02191690836002811115610df757610df66110ea565b5b02179055508273ffffffffffffffffffffffffffffffffffffffff168473ffffffffffffffffffffffffffffffffffffffff167faafab9f94340179ff9cefd29621e1772a4b8efab8023163838f1b0a8f6ce5df58360020154604051610e5d9190611411565b60405180910390a350505050565b60008060008060008060008060008a73ffffffffffffffffffffffffffffffffffffffff1673ffffffffffffffffffffffffffffffffffffffff1681526020019081526020016000208881548110610ec657610ec56114bf565b5b90600052602060002090600502016040518060c00160405290816000820160009054906101000a900473ffffffffffffffffffffffffffffffffffffffff1673ffffffffffffffffffffffffffffffffffffffff1673ffffffffffffffffffffffffffffffffffffffff1681526020016001820160009054906101000a900473ffffffffffffffffffffffffffffffffffffffff1673ffffffffffffffffffffffffffffffffffffffff1673ffffffffffffffffffffffffffffffffffffffff16815260200160028201548152602001600382015481526020016004820160009054906101000a900460ff166002811115610fc457610fc36110ea565b5b6002811115610fd657610fd56110ea565b5b81526020016004820160019054906101000a900460ff1615151515815250509050806000015181602001518260400151836060015184608001518560a00151965096509650965096509650509295509295509295565b60025481565b600080fd5b6000819050919050565b61104a81611037565b811461105557600080fd5b50565b60008135905061106781611041565b92915050565b60006020828403121561108357611082611032565b5b600061109184828501611058565b91505092915050565b600073ffffffffffffffffffffffffffffffffffffffff82169050919050565b60006110c58261109a565b9050919050565b6110d5816110ba565b82525050565b6110e481611037565b82525050565b7f4e487b7100000000000000000000000000000000000000000000000000000000600052602160045260246000fd5b6003811061112a576111296110ea565b5b50565b600081905061113b82611119565b919050565b600061114b8261112d565b9050919050565b61115b81611140565b82525050565b60008115159050919050565b61117681611161565b82525050565b600060c08201905061119160008301896110cc565b61119e60208301886110cc565b6111ab60408301876110db565b6111b860608301866110db565b6111c56080830185611152565b6111d260a083018461116d565b979650505050505050565b6111e6816110ba565b81146111f157600080fd5b50565b600081359050611203816111dd565b92915050565b60008060006060848603121561122257611221611032565b5b6000611230868287016111f4565b9350506020611241868287016111f4565b925050604061125286828701611058565b9150509250925092565b600081519050919050565b600082825260208201905092915050565b6000819050602082019050919050565b611291816110ba565b82525050565b6112a081611037565b82525050565b6112af81611140565b82525050565b6112be81611161565b82525050565b60c0820160008201516112da6000850182611288565b5060208201516112ed6020850182611288565b5060408201516113006040850182611297565b5060608201516113136060850182611297565b50608082015161132660808501826112a6565b5060a082015161133960a08501826112b5565b50505050565b600061134b83836112c4565b60c08301905092915050565b6000602082019050919050565b600061136f8261125c565b6113798185611267565b935061138483611278565b8060005b838110156113b557815161139c888261133f565b97506113a783611357565b925050600181019050611388565b5085935050505092915050565b600060208201905081810360008301526113dc8184611364565b905092915050565b6000602082840312156113fa576113f9611032565b5b6000611408848285016111f4565b91505092915050565b600060208201905061142660008301846110db565b92915050565b60008060006060848603121561144557611444611032565b5b6000611453868287016111f4565b935050602061146486828701611058565b925050604061147586828701611058565b9150509250925092565b6000806040838503121561149657611495611032565b5b60006114a4858286016111f4565b92505060206114b585828601611058565b9150509250929050565b7f4e487b7100000000000000000000000000000000000000000000000000000000600052603260045260246000fd5b600082825260208201905092915050565b7f496e76616c69642072656365697665722e000000000000000000000000000000600082015250565b60006115356011836114ee565b9150611540826114ff565b602082019050919050565b6000602082019050818103600083015261156481611528565b9050919050565b7f536869706d656e74206e6f7420696e207472616e7369742e0000000000000000600082015250565b60006115a16018836114ee565b91506115ac8261156b565b602082019050919050565b600060208201905081810360008301526115d081611594565b9050919050565b7f536869706d656e7420616c726561647920706169642e00000000000000000000600082015250565b600061160d6016836114ee565b9150611618826115d7565b602082019050919050565b6000602082019050818103600083015261163c81611600565b9050919050565b7f5061796d656e7420616d6f756e74206d757374206d617463682074686520707260008201527f6963652e00000000000000000000000000000000000000000000000000000000602082015250565b600061169f6024836114ee565b91506116aa82611643565b604082019050919050565b600060208201905081810360008301526116ce81611692565b9050919050565b7f4e487b7100000000000000000000000000000000000000000000000000000000600052601160045260246000fd5b600061170f82611037565b91507fffffffffffffffffffffffffffffffffffffffffffffffffffffffffffffffff8203611741576117406116d5565b5b600182019050919050565b600060408201905061176160008301856110db565b61176e60208301846110db565b9392505050565b7f536869706d656e7420616c726561647920696e207472616e7369742e00000000600082015250565b60006117ab601c836114ee565b91506117b682611775565b602082019050919050565b600060208201905081810360008301526117da8161179e565b905091905056fea26469706673582212200f744b8bbf55301a5741a9acf800fe029ef176a16b85d248206ad982ebcf682d64736f6c63430008120033",
  "linkReferences": {},
  "deployedLinkReferences": {}
}